:1000000068210020250100002101000021010000DD
:1000100000000000000000000000000000000000E0
:1000200000000000000000000000000021010000AE
:10003000000000000000000021010000210100007C
:10004000210100002101000021010000F10C00004D
:1000500021010000B90B0000210100002101000076
:100060002101000015100000210100002101000005
:1000700029100000210100002101000021010000E1
:1000800021010000210100002101000021010000E8
:1000900021010000210100002101000021010000D8
:1000A00021010000210100002101000021010000C8
:1000B0000000000010B5064C2378002B07D1054B3B
:1000C000002B02D0044800E000BF0123237010BDC4
:1000D0000000002000000000E4130000084B10B5F1
:1000E000002B03D00749084800E000BF0748036819
:1000F000002B00D110BD064B002BFBD09847F9E731
:100100000000000004000020E4130000E4130000DD
:100110000000000010B5014B984710BD950300008A
:10012000FEE70000F8B5234A234B9A4209D0224B40
:10013000204A03E011681960043304321F498B42DE
:10014000F8D31F4B02E000221A6004331D4A934289
:10015000F9D31D4AFF211D4B8B439360FD3990233A
:100160005B001B4AD1501B4AD3780325AB430224C2
:100170002343D370D3780C27BB4308263343D37073
:10018000154B987B30229043202210439873997B23
:10019000B943314399739A7BAA4322439A730F4A16
:1001A000516880230B4353600D4B98470D4B984784
:1001B000FEE7C046E413000000000020000000201D
:1001C000000000206801002000ED00E000000000B9
:1001D00000700041005000410048004100400041D3
:1001E0001D120000F911000010B5084A9369202182
:1001F0000B439361064A074B5A80074B984702000E
:1002000006490748074B984710BDC0460004004008
:1002100004400000000C0040ED0C00000014004001
:100220009000002061050000024AD36904210B43BD
:10023000D36170470004004010B5034B9847034951
:100240000348044B984710BD2902000000400041BC
:10025000AC00002021040000044A136A04210B436F
:100260001362034A034B5A807047C04600040040A3
:1002700014420000000C004030B50F4B4422995C42
:100280000125A94301242143C9B299543220195CA4
:10029000353A914303221143C9B2195445215A5C9E
:1002A000AA432243D2B25A541A5C36390A4030214A
:1002B0000A43D2B21A5430BD0044004110B582B096
:1002C000064B9847002300931033054A054906481A
:1002D000064CA047064B984702B010BD59020000DB
:1002E0001C0000200008004218010020FD0700004B
:1002F00079020000044A136A20210B431362034A67
:10030000034B5A807047C04600040040174300006A
:10031000000C004030B50F4B5622995C0125A943D3
:1003200001242143C9B299543B20195C473A9143B7
:1003300002221143C9B2195457215A5CAA432243DD
:10034000D2B25A541A5C48390A4020210A43D2B228
:100350001A5430BD0044004110B582B0074B984795
:10036000002300931033064A103206490648074C12
:10037000A047074B984702B010BDC046F5020000E9
:100380001C00002000140042C8000020FD070000EF
:100390001503000010B50E4B9847C023DB058022E3
:1003A000D20594215A500C395A500A4B20315A50D8
:1003B000094A5A5036315A5C012082435A54074B3D
:1003C0009847074B9847074B9847074B984710BDEE
:1003D000D10A000000440041004000C03902000082
:1003E000BD02000059030000E9010000EFF3108393
:1003F000036072B6BFF35F8F7047BFF35F8F036810
:1004000083F31088704710B54369002B00D09847DC
:1004100010BD10B58369002B00D0984710BD0000B7
:1004200070B504000D00002813D000290FD0012062
:1004300038220949094B984729002000084B984762
:10044000002803D1074B2360074B636070BD002079
:10045000EEE70020ECE7C046641200006D090000E2
:10046000590B0000070400001304000070B50400DD
:100470000D00160000280ED000290AD001203D22D0
:100480000649074B984763683200290020009847C7
:1004900070BD0020F3E70020F1E7C0467C120000A9
:1004A0006D090000F8B50668002E02D03300002563
:1004B0000CE0104B984718E09F68BC466444A41AAF
:1004C00001348F68BC420BD21D001B68002B07D083
:1004D0005C689442F0D8A41A9F68BC466444F0E774
:1004E000B34203D02800044B9847F8BD014B98470E
:1004F000FBE7C0468D090000B9090000F8B505000A
:10050000446903695E1C0661037EDB0702D4037E37
:100510009B070AD52B7E02221343DBB22B76F8BD54
:100520006F69E368200098473C00002CF7D06368AF
:10053000F31AA2689342F2D32F0014373800064B07
:100540009847237C012BEBD16660320021003800F4
:10055000024B9847E4E7C046C1090000A50400002B
:1005600070B504000D00002812D000290ED0012023
:100570003B220849084B984729002000074B984721
:1005800000232361064B2360002070BD0020EFE7AD
:100590000020EDE7901200006D090000250C00001E
:1005A000FD04000010B50400431E9841C0B2532260
:1005B0000749084B98472000074B9847002804D16B
:1005C0002000064B9847002010BD11204042FBE759
:1005D000901200006D090000D90C0000810C000091
:1005E00070B582B004000D00002826D0002922D06A
:1005F00001207A221F49204B9847237E0122134372
:10060000DBB2237626001436290030001B4B9847B6
:10061000002814D123696B60226929003000184B2F
:100620009847237E012293432376237E9B0712D48F
:10063000002002B070BD0020DBE70020D9E7237E58
:100640000122934323767E320A4900200A4B9847C1
:1006500012204042EDE701A80A4B9847237E022270
:10066000934323762000084B984701A8074B9847EF
:100670000020DEE7901200006D09000075090000FF
:10068000A5040000ED030000EB0C0000FB030000DC
:1006900010B5083800230363436A002B00D0984745
:1006A00010BD10B5083800230363C36A002B00D0C7
:1006B000984710BD10B504002C30044B9847236AAE
:1006C000083C002B01D02000984710BD6D0A0000A7
:1006D00070B504000E00150000281DD000291DD0A3
:1006E000002A1DD100203C22FF321049104B9847B0
:1006F0004423E25A0833E35A9A4213D1A6644C23A6
:10070000E5520022083BE252433B236320000830BD
:10071000084B9847280070BD0020E4E70020E2E77E
:100720000120E0E71C204042F5E7C046A812000087
:100730006D0900008B0F000070B504000200083A3C
:100740004423D35A4C21525A93420DD00200016CDB
:10075000083A5D1C44201552C95C2000044B9847A0
:100760002000044B984770BD034B9847FBE7C046F9
:10077000830F00008B0F0000930F0000F0B585B0D1
:1007800004000D001600002817D0002917D0002AF9
:1007900017D10020AC2252001249134B984703A8EE
:1007A000124B9847343420000194114B98470700AE
:1007B00003A8104B984700240BE00020EAE7002034
:1007C000E8E70120E6E70134A4B2691801980A4B72
:1007D00098472100A74201D9B442F4D3200005B0C4
:1007E000F0BDC046A81200006D090000ED03000036
:1007F000AD0A0000FB030000210A0000F8B5040068
:100800000D0016001F00002826D0002926D0002A3F
:1008100026D0002B26D100203A221549154B9847A7
:10082000200034303A003100134B984700281BD188
:10083000200008302900114B984700280BD1104B9D
:100840006360104B2360104BA360104BE360104BB0
:100850002361104B6361F8BD0020DDE70020DBE77A
:100860000020D9E70120D7E70D204042F3E7C0463A
:10087000A81200006D090000D5090000E50E000077
:100880007D070000D106000039070000B506000012
:1008900091060000A306000010B50400431E984115
:1008A000C0B261220449054B984720000830044B30
:1008B0009847002010BDC046A81200006D09000036
:1008C000710F000070B504000D0000280BD0002946
:1008D00007D0012077220549054B98472C6000205E
:1008E00070BD0020F6E70020F4E7C046A812000023
:1008F0006D09000070B505000E001400431E9841FC
:10090000C0B283221649174B9847012E11D0002EF2
:1009100004D0022E18D00D20404209E0AC62621EC5
:100920009441E2B22800083001210F4B9847002083
:1009300070BD6C62621E9441E2B228000830022150
:10094000094B98470020F3E7EC62621E9441E2B243
:10095000280008300321044B98470020E8E7C046F0
:10096000A81200006D0900009D0F0000002800D1B2
:1009700000BE70470368002B03D08B4203D01B6876
:10098000F9E7002070470120FCE7000070B5040083
:100990000D00064B984701235840C0B23922044944
:1009A000044B984723682B60256070BD75090000D3
:1009B000C81200006D09000003680B6001607047F9
:1009C0000368002B03D01A680260180070470020EB
:1009D000FCE7000070B504000E001500002812D0DE
:1009E000002912D0002A12D1002028220A490B4BDC
:1009F00098476B1E2B420CD163600023A360E36019
:100A00002660002070BD0020EFE70020EDE7012008
:100A1000EBE70D204042F5E7E81200006D09000009
:100A200070B504000D00002816D0002912D0012056
:100A300040220C490C4B9847A368E2689A420DD0BB
:100A4000626813402268D35C2B70A3680133A360F3
:100A5000002070BD0020EBE70020E9E70A204042BB
:100A6000F7E7C046E81200006D09000070B5040009
:100A70000D00431E9841C0B251220A490A4B9847C3
:100A80006368E26813402268D554E368A2689A1A42
:100A900061688A4201D9591AA1600133E3600020DC
:100AA00070BDC046E81200006D09000010B50400DA
:100AB000431E9841C0B267220349044B9847E0683F
:100AC000A368C01A10BDC046E81200006D090000FE
:100AD00010B5064B5A685A60054B9847054B984726
:100AE000054B9847FF20054B984710BD004000413B
:100AF000E90B00003D10000089100000010B000010
:100B0000C3070AD5114B802252009A6083225202F9
:100B10005A600E4B5B78DB09FBD1430709D50B4BC1
:100B2000812252009A600A4A5A60084B5B78DB09BE
:100B3000FBD1030709D5054B0422FF329A60054A11
:100B40005A60024B5B78DB09FBD17047000C004018
:100B5000020601000306010070B505000C00002824
:100B60001CD0104B99421BD0002046220E490F4B3F
:100B700098472C6162689E23134063600C4B1D6094
:100B80000C4B202280215A50BFF34F8FBFF36F8F41
:100B90000131FF315A501A60002070BD0020E4E797
:100BA0000120E2E7004000410C1300006D09000045
:100BB0003C00002000E100E010B50A4B1868036912
:100BC0001A7DD20704D50368002B00D0984710BDCA
:100BD0001A7D9207FBD502221A754368002BF6D0C6
:100BE0009847F4E73C000020064B1A7AD2B21A72FA
:100BF0005A7AD2B25A729A7AD2B29A72DA7AD2B255
:100C0000DA7270470004004010B50400C3681B7A14
:100C1000DB0706D50368002B00D09847E368012264
:100C20001A7210BD70B504000D00431E9841C0B289
:100C300033221049104B9847E56001232B80AB7A93
:100C4000DB09FCD1E268937ADB09FCD180331380A5
:100C5000937ADB09FCD1E26893698023DB0093611E
:100C6000937ADB09FCD10133E268D371034B1C603A
:100C7000002070BD2C1300006D0900004000002012
:100C800010B5041E20D0C368002B1BD001206A229F
:100C90000E490F4B984708220E4B1A60E268136901
:100CA00000231361937ADB09FCD1E268937ADB09B4
:100CB000FCD1138802210B439BB21380937ADB098A
:100CC000FCD110BD0020E2E70020E0E72C1300007B
:100CD0006D09000000E100E0C268937ADB09FCD1F5
:100CE00013885B0801201840704770470020704748
:100CF00010B5024B1868024B984710BD4000002009
:100D0000090C0000024B9C466044800AC0B2704748
:100D100000F8FFBD10B58469237EDB0702D5A37DF3
:100D2000DB070FD4237E9B0702D5A37D9B070ED440
:100D3000237E5B0715D5628B37231A420CD008330C
:100D4000638310BD0123237503689847F9E70223E5
:100D5000237583689847F4E74368218DC9B29847A3
:100D6000EFE7237EDB09ECD080232376C368984726
:100D7000638B9BB26383E4E7064B984203D0064B38
:100D8000984203D07047054B1960F8E7034B596050
:100D9000F8E7C0460008004200140042440000206A
:100DA00010B5024B98470930C0B210BD050D0000C8
:100DB00010B50C4B984701000020012809D883008A
:100DC0001B189A00084BD35C994209D00130C0B27D
:100DD000F3E79822920005490020054B9847002030
:100DE00010BDC046050D000044130000A81300000C
:100DF0006D09000070B50400384B9847E369DB07C4
:100E00001DD483001B189A00354B9B185A681C236D
:100E10001A40E3699B07FCD123689B0709D5236827
:100E200002218B432360E3699B07FCD1E3699B07A5
:100E3000FCD4012313432360E3699B07FCD1E369DE
:100E4000DB07FCD483001B189A00254B9B185B68BA
:100E50002360E3699B07FCD183001B189A00204B99
:100E60009B189B686360E3695B07FCD183001B18D8
:100E70009A001B4B9B185B689A040BD4C022D201CA
:100E8000134207D183001B189A00154B9B189B89AE
:100E9000A38115E083001B189A00114989188A89DB
:100EA000A389D204D20C5B0B5B031343A3818B7B1E
:100EB00007221A40A3895203DB04DB0C1343A381EE
:100EC000074A83001D18A9000D005118C97BA173A2
:100ED0005219127C3023E254002070BDB10D000085
:100EE0004413000070B506000C00431E9841C0B2C8
:100EF000C6221949194B98472000194B9847051EDF
:100F000001D0280070BDB46131002000154B984716
:100F10002000154B984743B2002B0ADB1F210140EC
:100F200001228A408021114C6250BFF34F8FBFF3E2
:100F30006F8F002B07DB1F21014001228A40C02157
:100F400049000A4C6250002BDBDB1F2318401E3B7C
:100F50008340064A1360D4E7A81300006D0900001F
:100F6000F50D0000790D0000A10D000000E100E08A
:100F70008269136802210B431360D3699B07FCD17C
:100F80007047836989B219857047836901229A7510
:100F90007047836902229A757047000070B504009B
:100FA0000D001600431E9841C0B2882292001749D6
:100FB000174B9847002D0BD0022D09D0012D18D0CA
:100FC000032D0FD1A369002E1CD080229A7509E051
:100FD000A369002E07D101221A75A369002E05D13D
:100FE00002221A7570BD01229A75F6E702229A75DF
:100FF000F8E7A369002E02D104221A75F2E7042251
:101000009A75EFE780221A75ECE7C046A813000036
:101010006D09000010B5024B1868024B984710BDCF
:1010200044000020150D000010B5024B5868024B1B
:10103000984710BD44000020150D00000F4B196AA1
:10104000090C1A6A920F920709040D4801400A43DD
:101050000C490A431A629A6902210A439A611A7F6B
:101060001D310A401A77054BDB681B07FBD5034A85
:10107000136A80210B4313627047C046000800408A
:101080000000FF0F02030000024A936902218B4314
:101090009361704700080040704770477047704781
:1010A00010B582B06B46DC1D0122210009480A4BB5
:1010B00098470A4A1378D118207808710133DBB2B7
:1010C0001370092B01D002B010BD0022034B1A701F
:1010D000F9E7C046180100206D0400004C00002014
:1010E00010B582B06B46DC1D0122210009480A4B75
:1010F00098470A4A537BD118207808740133DBB231
:101100005373092B01D002B010BD0022034B5A7358
:10111000F9E7C046C80000206D0400004C00002024
:1011200030B583B0094C0A4A01212000094DA84777
:10113000094A00212000A84701A92000074B984731
:101140002000074B984703B030BDC046180100206F
:1011500099100000F5080000A1100000C50800006B
:101160009908000030B583B0094C0A4A01212000DB
:10117000094DA847094A00212000A84701A92000DD
:10118000074B98472000074B984703B030BDC04637
:10119000C80000209B100000F5080000E1100000CE
:1011A000C50800009908000070B50D4964234B6222
:1011B0000C4B8B6201232C228B549C328A630A4A8B
:1011C000CA630E00303633741C31084C2000084DC1
:1011D000A84731002000A8472000064B984770BD63
:1011E0004C0000209D1000009F1000009000002087
:1011F000E1050000A505000010B5044B9847044B1D
:101200009847044B9847044B9847FEE715010000A8
:101210002111000065110000A911000070B5002621
:101220000C4D0D4C641BA410A64209D1002600F001
:10123000C9F80A4D0A4C641BA410A64205D170BD22
:10124000B300EB5898470136EEE7B300EB589847E8
:101250000136F2E7D0130000D0130000D0130000D5
:10126000D41300002E2E2F68616C2F7372632F68C9
:10127000616C5F666C6173682E6300002E2E2F68B0
:10128000616C2F7372632F68616C5F696F2E6300EE
:101290002E2E2F68616C2F7372632F68616C5F74E0
:1012A000696D65722E6300002E2E2F68616C2F739E
:1012B00072632F68616C5F75736172745F617379BB
:1012C0006E632E63000000002E2E2F68616C2F7558
:1012D00074696C732F7372632F7574696C735F6CB0
:1012E0006973742E630000002E2E2F68616C2F75B9
:1012F00074696C732F7372632F7574696C735F728A
:10130000696E676275666665722E63002E2E2F68A1
:10131000706C2F6E766D6374726C2F68706C5F6E7C
:10132000766D6374726C2E63000000002E2E2F68A1
:10133000706C2F7274632F68706C5F7274632E63AD
:101340000000000000000000040010410000030045
:10135000ADD80000000000000300000004001040B1
:1013600000000300ADD800000000000000000000F5
:10137000000000000000000000000000000000006D
:10138000000000000000000000000000000000005D
:10139000000000000000000000000000000000004D
:1013A00000000000000000002E2E2F68706C2F73CC
:1013B0006572636F6D2F68706C5F736572636F6DBC
:1013C0002E630000F8B5C046F8BC08BC9E467047C6
:1013D000DD000000F8B5C046F8BC08BC9E4670476A
:0413E000B500000054
:00000001FF
