:10000000E027002029010000210200002102000059
:1000100000000000000000000000000000000000E0
:1000200000000000000000000000000021020000AD
:10003000000000000000000021020000210200007A
:1000400021020000210200002102000051260000D0
:10005000210200005D2100002102000021020000B9
:1000600021020000F5300000210200002102000002
:1000700011310000210200002102000021020000D5
:1000800021020000210200002102000021020000E4
:1000900021020000210200002102000021020000D4
:1000A00021020000210200002102000021020000C4
:1000B0000000000010B5064C2378002B07D1054B3B
:1000C000002B02D0044800E000BF0123237010BDC4
:1000D00054040020000000001C4D0000084B10B527
:1000E000002B03D00749084800E000BF0748036819
:1000F000002B00D110BD064B002BFBD09847F9E731
:1001000000000000580400201C4D00001C4D0000A1
:100110000000000080B500AF024B9847C046BD46C6
:1001200080BDC0465D0B000080B582B000AF2F4B94
:100130007B602F4B3B607A683B689A420CD007E0AB
:100140003B681A1D3A607A68111D796012681A605E
:100150003A68284B9A42F3D3274B3B6004E03B6854
:100160001A1D3A6000221A603A68244B9A42F6D36C
:10017000234B7B60234B7A68FF218A439A60224A93
:1001800090235B000221D150204AD37803218B4376
:10019000191C02230B43D3701C4AD3780C218B43C8
:1001A000191C08230B43D370194A937B30218B43CE
:1001B000191C20230B439373154A937B0C218B430B
:1001C000191C08230B439373114A937B03218B4320
:1001D000191C02230B4393730E4A536880210B436F
:1001E00053600D4B98470D4B9847FEE71C4D0000A0
:1001F000000000205404002054040020E0070020E8
:100200000000000000ED00E00070004100500041DF
:1002100000480041004000417549000015360000CB
:1002200080B500AFFEE780B582B000AF78600A000D
:10023000BB1C1A807B68BA1C12885A80C046BD4617
:1002400002B080BD80B584B000AFF8607A600B2347
:10025000FB180A1C1A700B23FB181B78FA68DB01C9
:10026000D31808337A681A60C046BD4604B080BD12
:1002700080B584B000AFF8607A600B23FB180A1CCD
:100280001A700B23FB181B78FA68DB01D3180433B0
:100290007A681A60C046BD4604B080BD80B584B09F
:1002A00000AFF8607A600B23FB180A1C1A700B234E
:1002B000FB181B78FA68DB01D31818337A681A60C8
:1002C000C046BD4604B080BD80B584B000AFF860C4
:1002D0007A600B23FB180A1C1A700B23FB181B787F
:1002E000FA68DB01D31814337A681A60C046BD4639
:1002F00004B080BD90B585B000AF78600C001000F0
:100300001900FB1C221C1A70BB1C021C1A707B1CDF
:100310000A1C1A70FB1C1978BB1C1A780F23FB18D7
:1003200078683024C90141188A18121912781A7095
:100330000F23FB180F22BA1812780F218A431A7064
:100340007B1C1B780F221340D9B20F23FB180F22FE
:10035000BA1812780A431A70FB1C1A78BB1C1B7857
:1003600079683020D2018A18D3181B180F22BA18C6
:1003700012781A70C046BD4605B090BD90B585B0E4
:1003800000AF78600C0010001900FB1C221C1A70D2
:10039000BB1C021C1A707B1C0A1C1A70FB1C1978EF
:1003A000BB1C1A780F23FB1878683024C901411848
:1003B0008A18121912781A700F23FB180F22BA1814
:1003C00012780F210A401A707B1C1B781B01D9B2CE
:1003D0000F23FB180F22BA1812780A431A70FB1C5D
:1003E0001A78BB1C1B7879683020D2018A18D31880
:1003F0001B180F22BA1812781A70C046BD4605B0F5
:1004000090BD90B585B000AF78600C001000190069
:10041000FB1C221C1A70BB1C021C1A707B1C0A1CC1
:100420001A70FB1C1978BB1C1A780F23FB1878680C
:100430004024C90141188A18121912781A700F2322
:10044000FB180F22BA18127801218A431A707B1CFC
:1004500019780F23FB180F22BA1812780A431A7062
:10046000FB1C1A78BB1C1B7879684020D2018A18C3
:10047000D3181B180F22BA1812781A70C046BD463E
:1004800005B090BD80B584B000AFF8607A600B23F2
:10049000FB180A1C1A700B23FB181B78FA68DB0187
:1004A000D31828337A681A60C046BD4604B080BDB0
:1004B00080B582B000AF39601100FB1D021C1A70BC
:1004C000BB1D0A1C1A70BB1D1B78012B23D0022BED
:1004D0003FD0002B5DD13A68FB1D1978C023DB05A6
:1004E0001800314B98473B681B041B0C8022D20537
:1004F0001A43FB1D1B782D4819002D4B98473B686C
:100500001B0CC02212061A43FB1D1B78274819003A
:10051000274B984743E03A68FB1D1978C023DB0559
:100520001800214B98473B681B041B0C214A1A43B7
:10053000FB1D1B781D4819001D4B98473B681B0C81
:100540001D4A1A43FB1D1B7818481900184B984781
:1005500025E03A68FB1D1978C023DB051800174B0E
:1005600098473B681B041B0C8022D2051A43FB1DD5
:100570001B780E4819000E4B98473B681B0CC02295
:1005800012061A43FB1D1B7808481900084B9847B0
:1005900005E00B4B4522190000200A4B9847C04646
:1005A000BD4602B080BDC04671020000004400415B
:1005B0008504000000000240000002C04502000067
:1005C000144B0000E715000080B582B000AF396021
:1005D0001100FB1D021C1A70BB1D0A1C1A70BB1DEA
:1005E0001B78002B08D03A68FB1D1978C023DB0567
:1005F0001800074B984707E03A68FB1D1978C0239D
:10060000DB051800034B9847C046BD4602B080BDCD
:100610009D020000C902000090B585B000AF78606F
:1006200039607B685A090F23FB181A707B68DAB2AD
:100630000E23FB181F210A401A703B6801330AD1B0
:100640000E23FB181A780F23FB1819781B48002378
:100650001B4CA0472EE00E23FB181A780F23FB1823
:10066000197816480123164CA0470E23FB181B7857
:10067000012213400FD00E23FB181B785B08DAB25F
:100680003B68D8B20F23FB1819780C4C03002000EC
:100690000C4CA0470EE00E23FB181B785B08DAB267
:1006A0003B68D8B20F23FB181978044C03002000D4
:1006B000054CA047C046BD4605B090BD0044004172
:1006C000030400007D030000F502000080B582B045
:1006D00000AF786039603A687B6811001800034BFE
:1006E0009847C046BD4602B080BDC046190600000E
:1006F00080B582B000AF0200FB1D1A70BB1D0A1C42
:100700001A70FB1D1B785B09D8B2FB1D1B781F22DA
:10071000134001229A401100BB1D1B781A00034BA5
:100720009847C046BD4602B080BDC046B104000037
:1007300080B582B000AF0200FB1D1A70BB1D0A1C01
:100740001A70FB1D1B785B09D8B2FB1D1B781F229A
:10075000134001229A401100BB1D1B781A00034B65
:100760009847C046BD4602B080BDC046C9050000DE
:1007700080B500AF024B9847C046BD4680BDC0461D
:10078000A518000080B582B000AF0200FB1D1A70F2
:10079000BB1D0A1C1A70FB1D1B789BB23F22134025
:1007A0009AB2BB1D1B789BB21B0299B2F0231B01AE
:1007B0000B409BB213439BB28022D20113439BB2E6
:1007C000044A19001000044B9847C046BD4602B0C9
:1007D00080BDC046000C00402702000080B582B0FA
:1007E00000AF78607B68012B01D1002323E07B6898
:1007F000022B01D101231EE07B68032B01D10223D0
:1008000019E07B680E4A934201D1032313E07B6811
:100810000C4A934201D104230DE07B680A4A9342BB
:1008200001D1052307E07B68084A934201D10623E2
:1008300001E00D235B421800BD4602B080BDC046FA
:1008400000200041004000410048004100500041AC
:1008500080B582B000AF78607A688223DB059A4267
:1008600001D100231FE07B68114A934201D101238B
:1008700019E07B680F4A934201D1022313E07B68A1
:100880000D4A934201D103230DE07B680B4A93424A
:1008900001D1042307E07B68094A934201D1052373
:1008A00001E00D235B421800BD4602B080BDC0468A
:1008B0000020004100400041004400410048004148
:1008C0000050004180B584B000AF02003960FB1DCC
:1008D0001A703B689B0A3F221340FB60FB1D1B788C
:1008E000012B1ED002DC002B05D044E0022B22D0CD
:1008F000032B36D03FE03B681800264B9847031E79
:1009000040DB3B681800234B98470300FB60224BF9
:10091000214A52690120F968884001000A435A615E
:1009200030E01D4B1C4A92690120F96888400100A3
:100930000A439A6129E03B681800184B9847031E48
:1009400022DB3B681800154B98470300FB60124BF5
:10095000114AD2690120F968884001000A43DA612E
:1009600012E00D4B0C4A126A0120F9688840010020
:100970000A431A6209E00A4B9B2219000020094B26
:10098000984702E0C04600E0C046C046BD4604B0FD
:1009900080BDC046DD070000000400405108000093
:1009A000304B0000E715000080B500AF034B190085
:1009B0000220034B9847C046BD4680BD0040004121
:1009C000C508000080B500AF054B9847054A064BA7
:1009D00011001800054B9847C046BD4680BDC04673
:1009E000A90900000040004100070020FD0B0000A5
:1009F00080B500AF054B19000320054B9847022135
:100A00001420044B9847C046BD4680BD00080042F4
:100A1000C50800008507000080B500AF064B19002F
:100A20000420064B9847064B19000520034B9847B6
:100A3000C046BD4680BDC04603000400CD06000090
:100A40000300050090B583B002AF084B9847084AF1
:100A500008490948002300931023084CA047084B7D
:100A60009847C046BD4601B090BDC046F1090000A0
:100A700070040020000800426C0700206D11000087
:100A8000190A000080B500AF054B19000320054B83
:100A9000984703211720044B9847C046BD4680BDA8
:100AA00000140042C50800008507000080B500AFB3
:100AB000064B19001620064B9847064B19001720C5
:100AC000034B9847C046BD4680BDC0460200160095
:100AD000CD0600000200170090B583B002AF084BAE
:100AE0009847084A08490948002300931023084CF6
:100AF000A047084B9847C046BD4601B090BDC046D0
:100B0000850A000080040020001400421C07002019
:100B10006D110000AD0A000080B500AF094B19004F
:100B20000120094B984700210420084B9847084BA7
:100B3000984702000349074B1800074B9847C046E7
:100B4000BD4680BD00140040C508000085070000B8
:100B500045260000E4060020350E000080B500AFF9
:100B60000D4B984700213E200C4B984702213E2018
:100B70000B4B984701235B4219003E20094B9847D5
:100B8000094B9847094B9847094B9847094B984799
:100B9000C046BD4680BDC046710700003107000059
:100BA000F1060000CD060000C5090000450A00005E
:100BB000D90A0000190B000080B584B000AF78603E
:100BC000EFF31083FB60FA687B681A6072B6BFF3BC
:100BD0005F8FC046BD4604B080BD80B584B000AF15
:100BE0007860BFF35F8F7B681B68FB60FB6883F3F3
:100BF0001088C046BD4604B080BD000080B584B0FA
:100C000000AF786039607B68002B04D03B68002B14
:100C100001D0012300E000231A1C01231340DBB2A2
:100C20000E49382218000E4B98477B683A6811002D
:100C300018000C4B98470300FB60FB68002B01D0A9
:100C4000FB6806E07B68084A1A607B68074A5A60BE
:100C500000231800BD4604B080BDC046484B0000CC
:100C6000E7150000991B0000610D0000870D0000D2
:100C700090B587B000AFF860B9607A603B60FB6800
:100C8000002B07D07B68002B04D03B68002B01D0E1
:100C9000012300E000231A1C01231340DBB21C498E
:100CA0006A2218001B4B9847FB6818001A4B98479C
:100CB00003007B61FB681800184B984703003B61F9
:100CC0007B693A695A43BB689A4207D3BA683B6862
:100CD000D2187B6939694B439A4202D90E235B4291
:100CE00011E0FB68BA68110018000D4B9847031E0D
:100CF00002D011235B4206E0F8683B687A68B96865
:100D0000084CA04700231800BD4607B090BDC04660
:100D1000484B0000E7150000451C0000571C000070
:100D2000511F0000411D000080B582B000AF786007
:100D30007B685A1E9341DBB20649F7221800064B26
:100D400098477B681800054B984703001800BD467C
:100D500002B080BD484B0000E7150000451C0000B4
:100D600080B584B000AF78607B68FB60FB685B692E
:100D7000002B04D0FB685B69FA6810009847C046F6
:100D8000BD4604B080BD80B584B000AF78607B689C
:100D9000FB60FB689B69002B04D0FB689B69FA68C9
:100DA00010009847C046BD4604B080BD80B584B0F1
:100DB00000AFF860B960BB1D1A80FB68002B04D03F
:100DC000BB68002B01D0012300E000231A1C012383
:100DD0001340DBB208493D221800084B9847FB68D6
:100DE0005B68BA1D1288B968F86898470300180054
:100DF000BD4604B080BDC046604B0000E715000052
:100E000080B582B000AF78607B681B681800BD4673
:100E100002B080BD80B582B000AF78607B68002BE7
:100E200002D07B681B6800E000231800BD4602B0BA
:100E300080BD000080B584B000AFF860B9607A6012
:100E4000FB68002B04D0BB68002B01D0012300E01D
:100E500000231A1C01231340DBB20B493B2218006C
:100E60000A4B9847FB68BA6811001800084B98476E
:100E7000FB6800221A61FB68064A1A60002318000A
:100E8000BD4604B080BDC046744B0000E7150000AD
:100E900099240000A910000080B582B000AF7860EE
:100EA0007B685A1E9341DBB20B49532218000B4B4F
:100EB00098477B6818000A4B9847031E02D01123FD
:100EC0005B4204E07B681800064B9847002318003B
:100ED000BD4602B080BDC046744B0000E71500005F
:100EE000C12500004D25000080B584B000AF7860BA
:100EF00039607B68002B04D03B68002B01D00123B4
:100F000000E000231A1C01231340DBB22E497A2291
:100F100018002E4B98477B681B7EDBB201221343DF
:100F2000DAB27B681A767B6814333A6811001800CD
:100F3000274B9847031E10D07B681B7EDBB2012233
:100F40009343DAB27B681A761F4B7F221900002088
:100F50001E4B984712235B4232E07B681A693B685C
:100F60005A607B68143318007B681A693B68190063
:100F7000184B98477B681B7EDBB201229343DAB2A1
:100F80007B681A767B681B7EDBB21A000223134053
:100F900015D00C23FB1818000F4B98477B681B7E5D
:100FA000DBB202229343DAB27B681A767B681800C0
:100FB0000A4B98470C23FB181800094B984700234D
:100FC0001800BD4604B080BD744B0000E71500005A
:100FD00013160000E50F0000B90B0000E12500002A
:100FE000DB0B000080B588B000AFF860B9607A60B4
:100FF0000023BB61FB681800274B984703003B6147
:101000003B69002B06D1BA68FB6811001800234B1E
:1010100098473DE03B69FB6124E0FB695A687B68C7
:101020009A4208D8FB699A68FB6959687B68CB1AB1
:10103000D3187B6109E0FB699A68FB695B68D21889
:101040007B685B42D31801337B61BB689A687B691C
:101050009A420BD9FB69BB61FB691800104B98479A
:101060000300FB61FB69002BD7D100E0C046FA69A1
:101070003B699A4206D1BA68FB6811001800074B19
:10108000984705E0BA68BB6911001800054B9847FE
:10109000BD4608B080BDC046010E000049160000E4
:1010A000150E0000A116000080B586B000AF786074
:1010B0007B683B613B6914331800294B9847030058
:1010C0007B613B691B695A1C3B691A613B691B695F
:1010D000FB603B691B7EDBB21A000123134006D183
:1010E0003B691B7EDBB21A000223134029D03B6907
:1010F0001B7EDBB202221343DAB23B691A762BE085
:101100007B69BB603B6914331800164B9847BB687A
:101110001B7C012B09D1BB68FA685A603B69143308
:10112000FA68B9681800104B98473B6914331800E7
:101130000B4B984703007B61BB68DB68BA68100003
:1011400098477B69002B07D07B695B68FA68D21AE5
:101150007B699B689A42D3D2BD4606B080BDC0462B
:10116000010E0000C1160000E50F000080B586B03A
:1011700000AFF860B9607A601A00BB1C1A80FB6887
:10118000002B0BD0BB68002B08D07B68002B05D050
:10119000BB1C1B88002B01D0012300E000231A1C7C
:1011A00001231340DBB21C493A2218001B4B98471D
:1011B000FB6834331800BB1C1A887B681900184B75
:1011C0009847031E02D00D235B4220E0FB680833E2
:1011D000BA6811001800134B984703007B617B69C4
:1011E000002B01D07B6912E0FB680F4A5A60FB6854
:1011F0000E4A1A60FB680E4A9A60FB680D4ADA6074
:10120000FB680D4A1A61FB680C4A5A6100231800FA
:10121000BD4606B080BDC0468C4B0000E7150000FF
:10122000F1160000F52A00000914000071130000F7
:10123000D51400007515000045150000B915000013
:1012400080B582B000AF78607B685A1E9341DBB2F4
:10125000074961221800074B98477B68083318003C
:10126000054B984700231800BD4602B080BDC0461C
:101270008C4B0000E7150000992B000080B582B070
:1012800000AF786039607B68002B04D03B68002B8E
:1012900001D0012300E000231A1C01231340DBB21C
:1012A000064977221800064B98477A683B681A600F
:1012B00000231800BD4602B080BDC0468C4B000024
:1012C000E715000080B584B000AFF8607A600B23AA
:1012D000FB180A1C1A70FB685A1E9341DBB22149A5
:1012E00083221800204B98470B23FB181B78012BF7
:1012F00012D0022B1FD0002B2CD1FB687A689A6287
:10130000FB68083318007B685A1E9341DBB21A0051
:101310000121164B984720E0FB687A685A62FB6807
:10132000083318007B685A1E9341DBB21A00022171
:101330000E4B984711E0FB687A68DA62FB68083365
:1013400018007B685A1E9341DBB21A000321074B39
:10135000984702E00D235B4200E000231800BD46E1
:1013600004B080BD8C4B0000E7150000452C000048
:1013700080B586B000AFF860B960BB1D1A80FB680D
:101380007B617B69002B08D0BB68002B05D0BB1D9F
:101390001B88002B01D0012300E000231A1C01232D
:1013A0001340D8B23C23FF331A00144B1900144BDE
:1013B00098477B6944229A5A7B694C215B5A9A422E
:1013C00002D01C235B4215E07B69BA689A647B6992
:1013D000BA1D4C2112885A527B694422002199522D
:1013E0007B6901221A637B6908331800054B984713
:1013F000BB1D1B881800BD4606B080BD8C4B00008D
:10140000E7150000E52B000080B588B000AFF8605C
:10141000B960BB1D1A801E23FB1800221A80FB68CE
:10142000BB61BB69002B08D0BB68002B05D0BB1D7E
:101430001B88002B01D0012300E000231A1C01238C
:101440001340D8B2AC235A001C4B19001C4B9847D0
:101450001023FB1818001B4B9847BB693433180046
:10146000194B984703007B611023FB181800174B9A
:1014700098470FE0BB69343318001E23FB181B8804
:101480001E22BA18591C11801A00BB689B1819003B
:101490000F4B98471E23FB181A887B699A4206D285
:1014A0001E23FA18BB1D12881B889A42E2D31E2302
:1014B000FB181B881800BD4608B080BD8C4B00008F
:1014C000E7150000B90B00004D180000DB0B000011
:1014D00065170000B0B584B000AF78607B68083B4A
:1014E000FB60FB6844229A5AFB684C215B5A9A4283
:1014F00018D0FB6808331C00FB689A6CFB68442119
:101500005B5A591C8DB2F96844200D52D3181B78D0
:1015100019002000084B9847FB6808331800074B58
:10152000984704E0FB6808331800054B9847C0460D
:10153000BD4604B0B0BDC046B92B0000E52B00008D
:10154000052C000080B584B000AF78607B68083B54
:10155000FB60FB6800221A63FB685B6A002B04D007
:10156000FB685B6AFA6810009847C046BD4604B045
:1015700080BD000080B584B000AF78600A00FB1C1D
:101580001A707B68083BFB60FB6834331A00FB1C55
:101590001B7819001000074B9847FB689B6A002BCB
:1015A00004D0FB689B6AFA6810009847C046BD46A5
:1015B00004B080BDD917000080B584B000AF78605A
:1015C0007B68083BFB60FB6800221A63FB68DB6AF0
:1015D000002B04D0FB68DB6AFA6810009847C0460D
:1015E000BD4604B080BD80B584B000AFB9607A60FC
:1015F0000F23FB18021C1A700F23FB181B78012203
:101600005340DBB2002B00D000BEC046BD4604B044
:1016100080BD80B584B000AF786039607B681B689E
:10162000FB6008E0FA683B689A4201D1012306E0BA
:10163000FB681B68FB60FB68002BF3D100231800DC
:10164000BD4604B080BD000080B582B000AF7860B8
:1016500039603A687B68110018000E4B9847030008
:101660005A1E9341DBB201225340DBB21A1C012304
:101670001340DBB2084939221800084B98477B68B1
:101680001A683B681A607B683A681A60C046BD46B3
:1016900002B080BD13160000AC4B0000E71500003F
:1016A00080B582B000AF786039607B681A683B68AB
:1016B0001A607B683A681A60C046BD4602B080BDB9
:1016C00080B584B000AF78607B681B68002B09D0C0
:1016D0007B681B68FB607B681B681A687B681A6004
:1016E000FB6800E000231800BD4604B080BD000088
:1016F00080B584B000AFF860B9607A60FB68002BF9
:1017000007D0BB68002B04D07B68002B01D00123DD
:1017100000E000231A1C01231340DBB20F492822EA
:1017200018000F4B98477B68013B7A68134002D042
:101730000D235B420EE07B685A1EFB685A60FB6813
:1017400000229A60FB689A68FB68DA60FB68BA68F6
:101750001A6000231800BD4604B080BDCC4B0000C9
:10176000E715000080B582B000AF786039607B6813
:10177000002B04D03B68002B01D0012300E00023A4
:101780001A1C01231340DBB2114940221800114BEF
:1017900098477B68DA687B689B689A4211D07B68BF
:1017A0001A687B6899687B685B680B40D3181A7865
:1017B0003B681A707B689B685A1C7B689A600023A0
:1017C00001E00A235B421800BD4602B080BDC0465E
:1017D000CC4B0000E715000080B582B000AF786008
:1017E0000A00FB1C1A707B685A1E9341DBB2154934
:1017F00051221800144B98477B681A687B68D96897
:101800007B685B680B40D318FA1C12781A707B68EF
:10181000DA687B689B68D21A7B685B689A4206D953
:101820007B68DA687B685B68D21A7B689A607B6841
:10183000DB685A1C7B68DA6000231800BD4602B0E2
:1018400080BDC046CC4B0000E715000080B582B0DB
:1018500000AF78607B685A1E9341DBB2064967226D
:101860001800064B98477B68DA687B689B68D31A38
:101870001800BD4602B080BDCC4B0000E71500004B
:1018800080B582B000AF786039607B685A683B6889
:101890005B001E210B401A437B685A60C046BD4660
:1018A00002B080BD80B500AF084B00211800084B86
:1018B0009847084B9847084B9847084B9847FF2094
:1018C000074B9847C046BD4680BDC046004000411A
:1018D000811800008D220000493200000D33000005
:1018E0004119000080B582B000AF7860C0467B68C7
:1018F0005B781B06DB0FDBB2002BF8D1C046BD4680
:1019000002B080BD80B582B000AF786039607B687E
:101910003A685A607B681800024B9847C046BD463B
:1019200002B080BDE518000080B582B000AF7860DD
:1019300039607B683A689A60C046BD4602B080BD97
:1019400080B582B000AF78607B68012213400DD073
:1019500080235B00184A19001000184B9847832316
:101960005B02154A19001000154B98477B6804224A
:1019700013400CD081235B000F4A190010000F4B5D
:101980009847104A0C4B110018000D4B98477B6884
:10199000082213400CD00423FF33074A190010001B
:1019A000064B9847084A044B11001800044B98470F
:1019B000C046BD4602B080BD000C004029190000A1
:1019C00005190000020601000306010080B582B07F
:1019D00000AF0200FB1D1A70FB1D1B787F2B09D87E
:1019E000064BFA1D127811001F220A400121914076
:1019F0000A001A60C046BD4602B080BD00E100E0AA
:101A000080B582B000AF0200FB1D1A70FB1D1B7871
:101A10007F2B0ED80949FB1D1B781A001F2313408A
:101A200001229A40130080228B50BFF34F8FBFF3E7
:101A30006F8FC046BD4602B080BDC04600E100E0E9
:101A400080B582B000AF0200FB1D1A70FB1D1B7831
:101A50007F2B0AD80749FB1D1B781A001F23134050
:101A600001229A40C0235B00CA50C046BD4602B066
:101A700080BDC04600E100E080B582B000AF786074
:101A80007B681B7DDBB21A00012313405A1E934171
:101A9000DBB21800BD4602B080BD80B582B000AF99
:101AA00078607B681B7DDBB25B08012213405A1E05
:101AB0009341DBB21800BD4602B080BD80B582B054
:101AC00000AF78607B6802221A75C046BD4602B03E
:101AD00080BD80B582B000AF78600A00BB1C1A8060
:101AE0007B68BA1C12881A80C046BD4602B080BD11
:101AF00080B584B000AF786039607B685B68FB605C
:101B0000FB683A681340FB60FB681800BD4604B0F0
:101B100080BD80B582B000AF786039607B683A687C
:101B20005A60C046BD4602B080BD80B582B000AFED
:101B3000786039607B683A68DA61C046BD4602B0B9
:101B400080BD80B584B000AF78600A00BB1C1A80ED
:101B50000E23FB187A68128C1A800E23FB180E22B3
:101B6000BA18B91C128809880A401A800E23FB187B
:101B70001B881800BD4604B080BD80B582B000AFA0
:101B800078600A00BB1C1A807B68BA1C12881A8312
:101B9000C046BD4602B080BD80B584B000AF78605D
:101BA00039607B68002B05D03B681C4A934201D109
:101BB000012300E000231A1C01231340DBB2184963
:101BC00046221800174B98477B683A681A61164BF3
:101BD0001B689E229343FB607B681B699E21180053
:101BE000124B98470200FB681343FB607B681B693C
:101BF000FA68110018000E4B98470E4B7A681A606D
:101C000005200D4B984705200C4B984705200C4BA1
:101C1000984700231800BD4604B080BD0040004135
:101C2000F04B0000E715000090040020F11A0000BE
:101C3000131B000094040020011A0000411A000048
:101C4000CD19000080B582B000AF78604023180045
:101C5000BD4602B080BD80B582B000AF7860802301
:101C60005B011800BD4602B080BD000080B588B0A1
:101C700000AFF860B9607A603B60BB685B08FB61ED
:101C8000C046FB681B6918002B4B984703001A00DD
:101C900001235340DBB2002BF3D1FB681A692023E8
:101CA000FF3319001000254B9847BB6801221340F1
:101CB00013D0FB695A1CFA615B001A001623FB184B
:101CC00012881A801623FB181B881B0A9BB2DAB2F3
:101CD0007B681A700123BB6126E00023BB6123E00F
:101CE000FB695A1CFA615B001A001623FB18128864
:101CF0001A807A68BB69D3181622BA181288D2B231
:101D00001A703B685A1EBB699A420AD9BB690133F3
:101D10007A68D3181622BA181288120A92B2D2B26E
:101D20001A70BB690233BB61BA693B689A42D7D368
:101D3000C046BD4608B080BD791A00007B1B00007C
:101D400090B5CDB002AFF860B9607A603B60BB6817
:101D50008C225200BA1813608C235B00FB181B689E
:101D6000FF2293438A225200BA1813608A235B0031
:101D7000FB181B68FF3388225200BA181360002337
:101D800092225200BA1813601EE092235B00FB18E7
:101D90001B689A018A235B00FB181B68D11810236B
:101DA000FA1892235B00FB181B689B01D218F86895
:101DB0004023634CA04792235B00FB181B68013350
:101DC00092225200BA18136092235B00FB181B6822
:101DD000032BDAD98C235B00FB181A688A235B007B
:101DE000FB181B68D31A9B0990225200BA18136083
:101DF0008C235B00FB181A688A235B00FB181B68A6
:101E0000D21A90235B00FB181B689B01D31A8E2209
:101E10005200BA1813603CE07B681978494B942251
:101E20005200BA18D21890235B00FB181B689B0164
:101E3000D2188E235B00FB181B68D3180A1C1A707B
:101E40008E235B00FB181B6801333F2213408E2258
:101E50005200BA1813608E235B00FB181B68002B1E
:101E600008D190235B00FB181B68013390225200BD
:101E7000BA1813608C235B00FB181B6801338C229B
:101E80005200BA1813607B6801337B603B68013BEA
:101E90003B608C235B00FB181A6888235B00FB18EF
:101EA0001B689A4202D83B68002BB5D1FB681B69BE
:101EB0008A225200BA18116802221800224B984751
:101EC000002392225200BA18136021E0FB681869BF
:101ED00092235B00FB181B689A018A235B00FB18A6
:101EE0001B68D1181023FA1892235B00FB181B689B
:101EF0009B01D218042300934023144CA047922343
:101F00005B00FB181B68013392225200BA18136061
:101F100092235B00FB181B68032BD7D98C235B0033
:101F2000FB181A683B68D3185A1E88235B00FB18FD
:101F30001B689A4200D90FE7C046BD464BB090BD22
:101F40006D1C0000E8FEFFFF911F0000052000004F
:101F500080B584B000AF786039603B689A0B0E237F
:101F6000FB181A807B6818690E23FB181B88012256
:101F70009A4013009BB21900044B984703005A4241
:101F80005341DBB21800BD4604B080BD431B0000C6
:101F900080B584B000AFF860B9607A60C046FB6875
:101FA0001800134B984703001A0001235340DBB27B
:101FB000002BF4D12023FF331A00FB681100180016
:101FC0000C4B9847BB685A08FB68110018000A4B75
:101FD00098477B689BB2094A13439AB2FB68110089
:101FE0001800074B9847C046BD4604B080BDC046A8
:101FF000791A00007B1B00002B1B000000A5FFFFCF
:10200000D31A000080B586B000AFF860B9607A607E
:102010001A00BB1C1A80BB68012213405A4253416C
:10202000D8B2C5235A00454B1900454B9847BB68A9
:102030005B087B61C046FB681800424B9847030071
:102040001A0001235340DBB2002BF4D13E4AFB6857
:10205000110018003D4B9847C046FB681800394BEB
:10206000984703001A0001235340DBB2002BF4D140
:102070002023FF331A00FB6811001800344B9847E7
:102080001223FB1800221A802FE01223FB181B8852
:102090007A68D3181A781023FB181A801223FB18B9
:1020A0001B883E2B11D81223FB181B8801337A683A
:1020B000D3181B781B021AB21023FB1800215B5E99
:1020C00013431AB21023FB181A807B695A1C7A61D9
:1020D0005B001A001023FB181B8813801223FB18C7
:1020E0001222BA18128802321A801223FA18BB1C64
:1020F00012881B889A42C8D3C046FB681800114B4F
:10210000984703001A0001235340DBB2002BF4D19F
:10211000BB685A08FB68110018000E4B98473B6AD1
:102120009BB20D4A13439AB2FB6811001800074B8B
:102130009847C046BD4606B080BDC046F04B000083
:10214000E7150000791A000044A50000D31A00002A
:102150007B1B00002B1B000000A5FFFF80B582B099
:1021600000AF184B1B681B697B607B681800164B1F
:102170009847031E0CD0134B1B681B68002B1DD007
:10218000104B1B681A680F4B1B681800904715E02E
:102190007B6818000D4B9847031E0FD07B68180012
:1021A0000B4B9847074B1B685B68002B06D0054B11
:1021B0001B685A68034B1B6818009047C046BD4611
:1021C00002B080BD94040020791A00009B1A000020
:1021D000BD1A000080B582B000AF78600A00FB1C19
:1021E0001A707B681B7ADAB2FB1C1B7807210B4044
:1021F000DBB21343DAB27B681A72C046BD4602B046
:1022000080BD80B582B000AF78600A00FB1C1A70F8
:102210007B685B7ADAB2FB1C1B7807210B40DBB2D0
:102220001343DAB27B685A72C046BD4602B080BD25
:1022300080B582B000AF78600A00FB1C1A707B6822
:102240009B7ADAB2FB1C1B7807210B40DBB21343ED
:10225000DAB27B689A72C046BD4602B080BD80B5D6
:1022600082B000AF78600A00FB1C1A707B68DB7AD2
:10227000DAB2FB1C1B7807210B40DBB21343DAB246
:102280007B68DA72C046BD4602B080BD80B500AF43
:102290000B4B002118000B4B9847094B00211800ED
:1022A000094B9847064B00211800084B9847044BF0
:1022B00000211800064B9847C046BD4680BDC04669
:1022C00000040040D521000003220000312200005C
:1022D0005F22000080B582B000AF0200FB1D1A70C3
:1022E000FB1D1B787F2B09D8064BFA1D12781100B5
:1022F0001F220A40012191400A001A60C046BD46D3
:1023000002B080BD00E100E080B582B000AF78602F
:10231000C0467B689B7A1B06DB0FDBB2002BF8D133
:10232000C046BD4602B080BD80B582B000AF7860C7
:102330007B6801221A72C046BD4602B080BD80B5DE
:1023400082B000AF78607B681B7ADBB21800BD46B4
:1023500002B080BD80B582B000AF78607B6801229A
:10236000DA71C046BD4602B080BD000080B582B0C3
:1023700000AF78607B681B889BB2022213439AB23D
:102380007B681A807B681800024B9847C046BD46A0
:1023900002B080BD0923000080B584B000AF786032
:1023A0007B6818000D4B98470E23FB187A6812883B
:1023B0001A800E23FB181B885B089AB20E23FB18A9
:1023C00001210A401A800E23FB181B885A1E9341D4
:1023D000DBB21800BD4604B080BDC0460923000032
:1023E00080B582B000AF78600A00BB1C1A807B68A1
:1023F000BA1C12881A807B681800034B9847C046A5
:10240000BD4602B080BDC0460923000080B584B03F
:1024100000AF786039607B681B69FB600023FB605C
:10242000FA683B681343FB607B68FA681A617B6853
:102430001800034B9847C046BD4604B080BDC04657
:102440000923000080B586B000AFF8607A600B23E6
:10245000FB180A1C1A700B23FB181A78FB6806324B
:102460009200D3587B6100237B617A697B681343B8
:102470007B610B23FB181A78FB680632920079699E
:10248000D150FB681800034B9847C046BD4606B0C4
:1024900080BDC0460923000080B584B000AF7860DD
:1024A00039607B685A1E9341DBB221493322180000
:1024B000204B98477B683A68DA607B68DB680121CB
:1024C00018001D4B98477B68DB6818001B4B98472A
:1024D0000E23FB1800221A800E23FB180E22BA18B6
:1024E00012881A800E23FB180E22BA181288802137
:1024F0000A431A807B68DA680E23FB181B881900D0
:1025000010000D4B98477B68D8688023DB001A00C9
:1025100000210B4B98477B68DB681800094B9847F4
:10252000094B7A681A6000231800BD4604B080BDCC
:10253000104C0000E7150000E12300000923000013
:1025400045240000552300009804002080B582B087
:1025500000AF78607B68002B05D07B68DB68002BC0
:1025600001D0012300E000231A1C01231340DBB239
:102570000D496A2218000D4B984703200C4B9847D1
:102580007B68DB68002118000A4B98477B68DB6892
:102590001800094B98477B68DB681800074B984781
:1025A000C046BD4602B080BD104C0000E7150000DB
:1025B000D52200000D240000092300006D23000037
:1025C00080B582B000AF78607B68DB681800034B91
:1025D000984703001800BD4602B080BD9923000053
:1025E00080B582B000AF7860C046BD4602B080BD05
:1025F00080B584B000AF78607B68DB6818000F4B53
:10260000984703001A000E23FB181A800E23FB18AC
:102610001B88012213400DD07B681B68002B04D05F
:102620007B681B687A68100098477B68DB68180035
:10263000034B9847C046BD4604B080BD3F23000011
:102640002923000080B500AF00231800BD4680BDDF
:1026500080B500AF034B1B681800034B9847C0467A
:10266000BD4680BD98040020F125000080B582B0F1
:1026700000AF0200FB1D1A70FB1D1B787F2B09D8D1
:10268000064BFA1D127811001F220A4001219140C9
:102690000A001A60C046BD4602B080BD00E100E0FD
:1026A00080B582B000AF0200FB1D1A70FB1D1B78C5
:1026B0007F2B0ED80949FB1D1B781A001F231340DE
:1026C00001229A40130080228B50BFF34F8FBFF33B
:1026D0006F8FC046BD4602B080BDC04600E100E03D
:1026E00080B582B000AF0200FB1D1A70FB1D1B7885
:1026F0007F2B0AD80749FB1D1B781A001F231340A4
:1027000001229A40C0235B00CA50C046BD4602B0B9
:1027100080BDC04600E100E080B582B000AF7860C7
:102720003960C0467B68DB693A681340FAD1C0461D
:10273000BD4602B080BD80B582B000AF7860396020
:102740007B68DB693A6813405A1E9341DBB218007C
:10275000BD4602B080BD80B582B000AF78607B68B6
:102760001B7EDBB21A00012313405A1E9341DBB2D9
:102770001800BD4602B080BD80B582B000AF786061
:102780007B681B7EDBB25B08012213405A1E93411B
:10279000DBB21800BD4602B080BD80B582B000AF8C
:1027A00078607B681B7EDBB29B08012213405A1EB7
:1027B0009341DBB21800BD4602B080BD80B582B047
:1027C00000AF78607B681B7EDBB2DB09012213401F
:1027D0005A1E9341DBB21800BD4602B080BD80B5E1
:1027E00082B000AF78607B6880221A76C046BD4612
:1027F00002B080BD80B582B000AF78607B680122F6
:102800009A75C046BD4602B080BD80B582B000AFAB
:1028100078607B689B7DDBB21A00012313405A1E4F
:102820009341DBB21800BD4602B080BD80B582B0D6
:1028300000AF78600A00FB1C1A70FB1C1B78012299
:102840005340DBB2002B03D07B6801221A7502E0F3
:102850007B6801229A75C046BD4602B080BD80B536
:1028600082B000AF78607B6801221A75C046BD4611
:1028700002B080BD80B582B000AF78607B68022274
:102880009A75C046BD4602B080BD80B582B000AF2B
:1028900078607B689B7DDBB25B08012213405A1E87
:1028A0009341DBB21800BD4602B080BD80B582B056
:1028B00000AF78600A00FB1C1A70FB1C1B78012219
:1028C0005340DBB2002B03D07B6802221A7502E072
:1028D0007B6802229A75C046BD4602B080BD80B5B5
:1028E00082B000AF78607B6802221A75C046BD4690
:1028F00002B080BD80B582B000AF78600A00FB1CDA
:102900001A70FB1C1B7801225340DBB2002B03D052
:102910007B6804221A7502E07B6804229A75C0461F
:10292000BD4602B080BD80B582B000AF78600A00BD
:10293000FB1C1A70FB1C1B7801225340DBB2002BDE
:1029400003D07B6880221A7502E07B6880229A752A
:10295000C046BD4602B080BD80B582B000AF786091
:102960007B681B6802221A437B681A607B6803211C
:102970001800034B9847C046BD4602B080BDC04614
:102980001927000080B582B000AF78607B681B68B3
:10299000022293431A007B681A607B6803211800A7
:1029A000024B9847C046BD4602B080BD19270000C3
:1029B00080B584B000AF786039607B68032118006F
:1029C000064B98477B681B68FB60FB683A681340BE
:1029D000FB60FB681800BD4604B080BD19270000ED
:1029E00080B582B000AF786039607B683A681A6061
:1029F0007B6803211800034B9847C046BD4602B0D0
:102A000080BDC0461927000080B582B000AF786055
:102A100039607B683A685A607B6807211800034B6D
:102A20009847C046BD4602B080BDC0461927000089
:102A300080B582B000AF78600A00BB1C1A807B684A
:102A4000BA1C12889A81C046BD4602B080BD80B5CE
:102A500082B000AF78600A00FB1C1A707B68FA1C19
:102A600012789A73C046BD4602B080BD80B582B070
:102A700000AF78600A00BB1C1A807B68BA1C128801
:102A80001A85C046BD4602B080BD80B582B000AF99
:102A900078607B681B8D9BB21800BD4602B080BD7C
:102AA00080B582B000AF78600A00FB1C1A707B68AA
:102AB000FA1C302112785A54C046BD4602B080BD7F
:102AC00080B582B000AF78600A00BB1C1A807B68BA
:102AD000BA1C12885A83C046BD4602B080BD80B57C
:102AE00082B000AF78607B685B8B9BB21800BD46FC
:102AF00002B080BD80B584B000AF786039607B687B
:102B00005A1E9341DBB21C49C62218001B4B984742
:102B10003B6818001A4B98470300FB60FB68002BCA
:102B200001D0FB6824E07B683A689A617A683B6868
:102B300011001800134B98473B681800124B984738
:102B400003005BB21800114B98473B6818000E4B0E
:102B5000984703005BB218000D4B98473B6818007C
:102B6000094B984703005BB218000A4B98470023B3
:102B70001800BD4604B080BD284C0000E7150000D9
:102B8000D52E0000952E0000D1300000A1260000B7
:102B9000E12600006D26000080B582B000AF7860AD
:102BA0007B689B691800034B9847C046BD4602B03E
:102BB00080BDC0465929000080B582B000AF786062
:102BC0000A00FB1C1A707B689A69FB1C1B789BB27D
:102BD00019001000024B9847C046BD4602B080BDA8
:102BE0006D2A000080B582B000AF78607B689B6979
:102BF0001800034B9847C046BD4602B080BDC04692
:102C0000F527000080B582B000AF78607B689B69D3
:102C10001800034B9847C046BD4602B080BDC04671
:102C20007528000080B582B000AF78607B68044AE8
:102C3000944663449B0ADBB21800BD4602B080BDD7
:102C400000F8FFBD80B582B000AF786008001100C9
:102C5000FB1C021C1A70BB1C0A1C1A707B685A1ED3
:102C60009341D8B288239A001C4B19001C4B9847FB
:102C7000FB1C1B78002B03D0FB1C1B78022B10D1F4
:102C80007B689A69BB1C1B7819001000154B98478C
:102C90007B689A69BB1C1B7819001000124B98477F
:102CA00018E0FB1C1B78012B08D17B689A69BB1CC0
:102CB0001B78190010000D4B98470BE0FB1C1B788C
:102CC000032B07D17B689A69BB1C1B781900100085
:102CD000074B9847C046BD4602B080BD284C000057
:102CE000E71500002D280000AD280000F5280000A1
:102CF0002729000090B585B000AF78607B689B699C
:102D0000FB60FB681800354B9847031E0FD0FB682B
:102D10001800334B9847031E09D0FB681800314B4D
:102D200098477B681B687A681000984753E0FB68F7
:102D300018002D4B9847031E0FD0FB6818002B4B33
:102D40009847031E09D0FB681800294B98477B68F9
:102D50009B687A68100098473DE0FB681800254B97
:102D60009847031E1BD0FB681800234B98470300AD
:102D70001A003723134005D0FB683F2118001F4B72
:102D8000984728E07B685C68FB6818001C4B9847F4
:102D90000300DAB27B6811001800A0471BE0FB6853
:102DA0001800184B9847031E15D0FB681800164BE7
:102DB00098477B68DB687A6810009847FB681800C2
:102DC0000D4B98470300BB60BB689AB2FB681100CB
:102DD00018000A4B9847BD4605B090BD5727000024
:102DE0000B2800005F280000792700008B280000D6
:102DF000DF2800009B270000DF2A0000C12A000016
:102E00008B2A0000BD270000DF27000090B585B0A9
:102E100000AF78600E23FC187B681800194B9847A8
:102E2000030023700F23FB1800221A7018E00F23F1
:102E3000FB181A78144913009B009B189B005B5CDD
:102E40000E22BA1812789A4203D10F23FB181B786E
:102E500013E00F23FB181A780F23FB1801321A70A6
:102E60000F23FB181B78012BE1D998239A00074BFD
:102E700019000020064B984700231800BD4605B0F6
:102E800090BDC046252C000000000020284C00000A
:102E9000E715000080B582B000AF786039607B68CC
:102EA000084A934202D1084B3A681A607B68074A85
:102EB000934202D1064B3A681A60C046BD4602B042
:102EC00080BDC046000800429C040020001400425F
:102ED000A004002090B585B000AF78600F23FC18E7
:102EE0007B6818006F4B9847030023707B680121B3
:102EF00018006D4B984703001A0001235340DBB2C2
:102F0000002B25D00F23FB181A78684913009B006B
:102F10009B189B00CB1804331B681C221340BB601A
:102F20007B6802211800624B9847031E08D07B681B
:102F30001800604B98477B68022118005E4B984749
:102F4000BB6801221A437B68110018005B4B98474D
:102F50007B6801211800584B98470F23FB181A78FB
:102F6000524913009B009B189B00CB1804331A682E
:102F70007B6811001800514B98470F23FB181A78F3
:102F80004A4913009B009B189B00CB1808331A6812
:102F90007B68110018004A4B98470F23FB181A78DA
:102FA000424913009B009B189B00CB1804331A68FE
:102FB00080239B0113400ED10F23FB181A783B4945
:102FC00013009B009B189B00CB1804331A68C02386
:102FD000DB01134030D00F23FB181A78334913005C
:102FE0009B009B189B00CB180C331B88DB04DB0C6D
:102FF00099B27A689389C904C80C5B0B5B03191CEE
:10300000031C0B4393810F23FB181A7827491300E5
:103010009B009B189B00CB180E331B781A1C0723B0
:103020001340D9B27A6893894803DB04DB0C191C7E
:10303000031C0B4393810FE00F23FB181A781B49E5
:1030400013009B009B189B00CB180C331A887B68DD
:10305000110018001B4B98470F23FB181A781349CF
:1030600013009B009B189B00CB180F331A787B68CA
:1030700011001800144B98470F23FB181A780B49BE
:1030800013009B009B189B00CB1810331A787B68A9
:10309000110018000D4B984700231800BD4605B0DD
:1030A00090BDC0460D2E0000372700000000002014
:1030B000B12900008529000019270000E12900003E
:1030C000092A0000312A00004F2A0000A12A00002E
:1030D00080B582B000AF78607B681800044B9847D9
:1030E00003000933DBB21800BD4602B080BDC04604
:1030F000252C000080B500AF034B1B681800034B64
:103100009847C046BD4680BD9C040020F52C0000B9
:1031100080B500AF034B1B681800034B9847C046AF
:10312000BD4680BDA0040020F52C000080B582B013
:1031300000AF78607B68DB68DB08012213405A1E11
:103140009341DBB21800BD4602B080BD80B582B0AD
:1031500000AF78607B689B6902221A437B689A61A2
:10316000C046BD4602B080BD80B582B000AF786079
:103170007B689B69022293431A007B689A61C04670
:10318000BD4602B080BD80B584B000AF78600F232B
:10319000FB187A68127F1A700F23FB180F22BA18D7
:1031A00012781F210A401A700F23FB181B78180091
:1031B000BD4604B080BD80B582B000AF78600A0023
:1031C000FB1C1A707B68FA1C12781A77C046BD4641
:1031D00002B080BD80B582B000AF78607B681B6AAA
:1031E00080221A437B681A62C046BD4602B080BD89
:1031F00080B584B000AF78607B681B6AFB60FB68B9
:103200001B0C1B051B0DFB60FB681800BD4604B0C2
:1032100080BD80B584B000AF78607B681B6AFB60BE
:10322000FB689B0FFB60FB681800BD4604B080BDC7
:1032300080B582B000AF786039607B683A681A6206
:10324000C046BD4602B080BD80B582B000AF244B01
:103250007B607B681800234B98470200BB1C1A80D8
:103260007B681800204B984703009A07BB1C1B88FB
:103270001B0419001D4B0B4013431D4A1A437B6866
:10328000110018001B4B98477B6818001A4B984791
:103290007B681800194B984703001A00BB1C1A8062
:1032A000BB1C1B88DBB21F221340DAB27B68110003
:1032B0001800134B9847C0467B681800114B98477D
:1032C00003001A0001235340DBB2002BF4D17B68CA
:1032D00018000D4B9847C046BD4602B080BDC046A1
:1032E00000080040F1310000133200000000FF0F21
:1032F00002030000313200004D3100008731000030
:10330000B73100002D310000D531000080B582B00A
:1033100000AF054B7B607B681800044B9847C046A4
:10332000BD4602B080BDC0460008004069310000C3
:1033300080B582B000AF78607B681800044B984776
:10334000044A7B681A607B681800BD4602B080BDE5
:1033500025370000604C000090B585B000AFF860E4
:1033600008007A6019000A23FB18021C1A8008233F
:10337000FB180A1C1A800A23FB1819880823FB185B
:103380001B887A680348044CA047C046BD4605B078
:1033900090BDC04600070020710C000080B584B0CD
:1033A00000AFF86008007A6019000A23FB18021CBD
:1033B0001A800823FB180A1C1A80C046BD4604B0B8
:1033C00080BD000080B582B000AF0200FB1D1A7006
:1033D000FB1D1A78044B11001800044B9847C04697
:1033E000BD4602B080BDC046CC040020213800009C
:1033F00080B582B000AF7860C046BD4602B080BDE7
:1034000080B584B000AF78600E23F918134B012209
:103410001800134B984702000F23FB181A700E2355
:10342000FB181B7818000F4B98470F4B1B781A009E
:103430000E23FB1819780D4B99540B4B1B78013355
:10344000DAB2094B1A70084B1B78092B02D1064BD4
:1034500000221A70C046BD4604B080BD6C07002033
:10346000AD0D0000C53300002D060020240600200D
:1034700080B582B000AF0D4A0D4B012118000D4BF5
:1034800098470D4A0A4B002118000A4B98473A1DED
:10349000074B11001800094B9847054B1800084BC3
:1034A0009847C046BD4602B080BDC046F13300001B
:1034B0006C070020C5120000013400007D120000DE
:1034C0004112000080B582B000AF7860C046BD46B2
:1034D00002B080BD80B584B000AF78600E23F918CB
:1034E000104B01221800104B984702000F23FB18C5
:1034F0001A700E4B1B781A000E23FB1819780C4B10
:1035000099540A4B1B780133DAB2084B1A70074BF7
:103510001B78092B02D1054B00221A70C046BD460C
:1035200004B080BD1C070020AD0D0000390600204E
:103530003006002080B582B000AF0D4A0D4B01214E
:1035400018000D4B98470D4A0A4B002118000A4BF2
:1035500098473A1D074B11001800094B9847054B37
:103560001800084B9847C046BD4602B080BDC04613
:10357000C53400001C070020C5120000D53400002F
:103580007D1200004112000080B582B000AF78606B
:10359000C046BD4602B080BD80B582B000AF786045
:1035A000C046BD4602B080BD80B500AF124B64225C
:1035B0009A60114B114ADA600F4B01221A74104BBA
:1035C000C8229A600E4B0F4ADA600D4B01221A7422
:1035D000094A0D4B110018000C4B9847084A0A4B3A
:1035E00011001800094B9847074B1800084B9847E3
:1035F000C046BD4680BDC0463C060020893500005F
:103600005006002099350000E4060020E90E000075
:10361000990E000090B587B000AF244B9847244B1B
:103620009847244B9847244B984700237B617B693C
:10363000062B08DC3A1D7B69D31809221A707B69B6
:1036400001337B61F3E73A1DAC23D9011B48072303
:103650001B4CA0473B0022221A703A001949174818
:103660000123174CA047184B1800184B984703002C
:10367000FB601223FB1800221A801223FB181A8801
:10368000FB689A4210D21223FB181B881222BA1828
:103690001288D1B20E4AD1541223FB181A88122371
:1036A000FB1801321A80E8E7FEE7C046150100006A
:1036B0007134000035350000A9350000CC0400202D
:1036C000593300000356000000070020290D0000B8
:1036D0006406002080B582B000AF786039607B68F6
:1036E000012B07D13B68054A934203D1044B1800D4
:1036F000044B9847C046BD4602B080BDFFFF0000A6
:10370000CC0400203133000080B500AF034B19001A
:103710000120034B9847BD4680BDC046FFFF000017
:10372000D536000080B582B000AF7860074A7B686C
:103730001A607B6800221A617B6814331800044BFE
:1037400098477B681800BD4602B080BDBC4C0000A5
:10375000B548000080B582B000AF78600A00BB1C9D
:103760001A80C046BD4602B080BD80B582B000AFB1
:103770007860C046BD4602B080BD80B582B000AF63
:103780007860C046BD4602B080BD80B582B000AF53
:103790007860C046BD4602B080BD80B584B000AF41
:1037A00078600A00BB1C1A807B681B681C331B688E
:1037B0007A68282110009847BB1C1B881A120F2317
:1037C000FB181A700E23FB18BA1C12881A707B683B
:1037D0001B681C331B680F22BA1811787A68100016
:1037E00098477B681B681C331B680E22BA18117837
:1037F0007A6810009847C046BD4604B080BD80B5C9
:1038000082B000AF78607B681B681C331B687A68E5
:10381000112110009847C046BD4602B080BD00008F
:1038200080B582B000AF78600A00FB1C1A707B681C
:103830009B7B002B08D07B684222002199547B6837
:103840009B22002199546BE17B681800B64B984786
:1038500003000A3B5A425341DBB2002B0ED0FB1C43
:103860001B788B2B04D0FB1C1B780B2B00D054E156
:103870007B6814211800AD4B98474EE17B689C2271
:103880009B58052B07D97B684222002199547B68FD
:103890009B22002199547B681800A34B9847030092
:1038A000013B5A425341DBB2002B00D037E17B6829
:1038B00097229B5C1C2B04DC7B6842229B5C262BA2
:1038C0000BDD7B684222002199547B689B220021FA
:1038D00099547B689722002199547B689C2200218F
:1038E00099507B6842229B5C19007B6843225B18DD
:1038F0009B18FA1C12781A707B689B229A5CFB1C3E
:103900001B785340D9B27B689B2299547B68422232
:103910009B5C072B00D9B6E09A00854BD3181B6837
:103920009F46FB1C1B781B09D9B27B686B229954FC
:10393000FB1C1B780F221340D9B27B686C22995470
:10394000A1E07B6844229B5C9BB21B029AB27B681D
:1039500045215B5C9BB2D31899B27B686E22995269
:1039600091E07B6846229B5C9BB21B029AB27B680B
:1039700047215B5C9BB2D31899B27B687022995245
:1039800081E07B6848229B5CDB11D9B27B687222A4
:1039900099547B681800674B98477B6848229B5C6A
:1039A0001B11DBB207221340D9B27B6873229954F2
:1039B0007B6848229B5C0F221340D9B27B6874223B
:1039C000995460E07B6849229B5CDB115A1E93414D
:1039D000D9B27B68762299547B6849229B5C1A0095
:1039E000402313405A1E9341D9B27B6877229954E1
:1039F0007B6849229B5C9B10DBB20F221340D9B23B
:103A00007B68782299547B6849229B5C032213408F
:103A1000D9B27B68982299547B6898229B5C9B0062
:103A2000D9B27B68982299542DE07B6898229A5CE1
:103A30007B684A215B5C9B11DBB2D318D9B27B68EF
:103A4000982299547B689722002199547B68972289
:103A50009B5C18007B684A229B5C3F221340D9B2D2
:103A60007B6879221B189B180A1C1A707B689722A6
:103A70009B5C19007B6879225B189B1819787B681E
:103A800099229954C0467B6842229B5C072B24DD17
:103A90007B6842229B5C19007B6874229B5C073325
:103AA00099421ADA7B6897229B5C0133D9B27B6812
:103AB000972299547B6897229B5C18007B6842226E
:103AC0009B5C19007B6843225B189B1819787B6804
:103AD00079221B189B180A1C1A707B6842229B5C77
:103AE00019007B6874229B5C073399420CD17B6878
:103AF0001800114B9847030019007B68A0229952C7
:103B00007B6818000D4B98477B6842229B5C013311
:103B1000D9B27B684222995402E0C04600E0C04618
:103B2000BD4602B080BDC046754800005348000045
:103B3000944C0000FF370000D93C0000413B0000DE
:103B400080B584B000AF78607B689B2200219954D7
:103B50007B684222002199547B6818004D4B98479E
:103B600003001A0001235340DBB2002B00D087E092
:103B70007B6874229B5C002B1AD17B6849229A5C7B
:103B80000F23FB1801210A401A700F23FB181B7822
:103B9000002B04D17B6818003F4B984708E00F23A7
:103BA000FB181B78012B03D17B6818003B4B98470F
:103BB0007B68A0229B5AC02B30D00FDC082B32D060
:103BC00005DC012B00D15DE0022B4FD053E00C2B24
:103BD00033D00E2B36D00A2B2AD04CE0A022520034
:103BE000934251D0A0225200934208DC802252001E
:103BF00093420ED08F225200934247D03BE0284A96
:103C0000934224D0274A934226D0274A934228D071
:103C100031E07B681800254B984738E07B68180036
:103C2000234B984733E07B681800224B98472EE0DF
:103C30007B681800204B984729E07B6818001F4BD1
:103C4000984724E07B6818001D4B98471FE07B686D
:103C500018001C4B98471AE07B6818001A4B9847CD
:103C600015E07B681800194B984710E07B68180036
:103C7000174B98470BE07B681800164B984706E0F7
:103C8000C04604E0C04602E0C04600E0C046BD4673
:103C900004B080BD353E0000E73D0000013E00005D
:103CA000D5030000D7030000D103000089410000C4
:103CB000D14100005142000061420000AD430000CC
:103CC0000D44000025440000A54500007146000099
:103CD000D94600000347000080B582B000AF78608D
:103CE0007B6898229B5C012B22D07B6898229B5C8E
:103CF000022B1DD07B6898229B5C062B18D07B681A
:103D000098229B5C082B13D07B6898229B5C092B24
:103D10000ED07B6898229B5C0A2B09D07B68982286
:103D20009B5C0C2B04D07B6898229B5C0E2B04D1EF
:103D30007B6898229B5C9BB20BE07B6898229B5C23
:103D40009BB29B019AB27B6899215B5C9BB2D318B2
:103D50009BB21800BD4602B080BD000090B583B094
:103D600000AF78600C0010001900FB1C221C1A70B8
:103D7000BB1C021C1A707B1C0A1C1A707A68262352
:103D8000FF330021D1547A68B91C2423FF3309780A
:103D9000D1547B68B222002199547B68FA1CB3216C
:103DA00012785A547A68791CAA235B000978D15496
:103DB0007B6801211800054B98477A6892235B00C5
:103DC0001421D154C046BD4603B090BD53480000F5
:103DD00080B582B000AF78600A00FB1C1A70C04644
:103DE000BD4602B080BD80B582B000AF78607B6810
:103DF000402201219954C046BD4602B080BD00005A
:103E000090B583B000AF78607B6840220021995460
:103E10007B681800054B9847786807230322002128
:103E2000034CA047C046BD4603B090BD13470000F9
:103E30005D3D000080B582B000AF78607B68722283
:103E40009B5C002B02D0012B09D024E07B68702200
:103E50009A5A7B68DB8A9A421AD101231CE07B685C
:103E600070229B5A002B01D1012315E07B681B684F
:103E70001B687A687021515A7A68100098470300CD
:103E800001335A1E9341DBB2002B03D0012303E020
:103E9000C04600E0C04600231800BD4602B080BD09
:103EA00090B587B000AF78600C0010001900FB1CC3
:103EB000221C1A703B00021C1A80BB1C0A1C1A70C0
:103EC0002C23FB181B889B11D9B27A688F235B00C7
:103ED000D1547A688F235B00D35C012B29D07A6898
:103EE0008F235B00D35C022B23D07A688F235B0087
:103EF000D35C062B1DD07A688F235B00D35C082B24
:103F000017D07A688F235B00D35C092B11D07A68B5
:103F10008F235B00D35C0A2B0BD07A688F235B0066
:103F2000D35C0C2B05D07A688F235B00D35C0E2BFF
:103F300001D1012200E000220F23FB181A700F2389
:103F4000FB181B7801225340DBB2002B06D028233C
:103F5000FB181B782822BA18013313707B68A4223F
:103F60009B58FA1C12781A707B68DB8A1A120E238F
:103F7000FB181A707B68DA8A0D23FB181A707B68AD
:103F8000A8229B580D22BA18127892B2120291B24E
:103F90000E22BA18127892B28A1892B21A803B0096
:103FA0001B881A120E23FB181A700D23FB183A00F7
:103FB00012881A707B68AC229B580D22BA181278AE
:103FC00092B2120291B20E22BA18127892B28A18E4
:103FD00092B21A807B68BB22602199547B68BB2215
:103FE0009B5C5AB2BB1C1B78012B02D180235B4225
:103FF00000E0002313435BB2D9B27B68BB22995423
:104000007B68BB229A5C2823FB181B781343D9B228
:104010007B68BB2299547B6876229B5CDB01D9B21A
:104020007B68BC2299547B68BC229A5C7B687721B0
:104030005B5C9B01DBB2D318D9B27B68BC2299547C
:104040007B68BC229A5C7B6878215B5C9B00DBB25E
:10405000D318D9B27B68BC2299547B68BC229B5C84
:104060005AB22C23FB181B881B125BB213435BB2A2
:10407000D9B27B68BC2299542C23FB181B88D9B277
:104080007B68BD2299547B68B3220721995417237A
:10409000FB1808221A701623FB1800221A700F232F
:1040A000FB181B78002B1ED03B6B002B0DD07B68C0
:1040B000BD229A5C3B6B1B783F210B40DBB2134364
:1040C000D9B27B68BD22995405E07B68BD22995C1A
:1040D0007B68BD2299541623FB1801221A701723FE
:1040E000FB1807221A701623FB181B783B61282344
:1040F000FB181A783B699A422CDD3B6B002B11D0E0
:104100001623FB181A781723FB181B78D3183A6963
:10411000396B8A1810787A68B621D3185B18021C9C
:104120001A700CE01623FB181A781723FB181B785B
:10413000D3187A68B621D3185B1800221A70162398
:10414000FB181A781623FB1801321A703B690133E9
:104150003B61CCE70F23FB181B78002B08D02823EA
:10416000FB181B780733D9B27B68B322995407E058
:104170002823FB181B780733D9B27B68B3229954E4
:10418000C046BD4607B090BD90B587B004AF78601B
:104190007B6841229B5C002B12D07868002302933D
:1041A000A0235B0001930023009301230022BC2184
:1041B000054CA0477868002300220821034CA04743
:1041C000C046BD4603B090BDA13E00005D3D00006D
:1041D00080B582B000AF78607B6841229B5C002B89
:1041E00030D07B684B229B5C9AB27B689A827B685A
:1041F0009B8A1B029AB27B689A827B689A8A7B6848
:104200004C215B5C9BB2D3189AB27B689A827B6824
:104210001B6820331B687A68918A7A681000984777
:104220007B681B6824331B687A681000984703007A
:104230001A007B68DA827B68DA8A7B6811001800D2
:10424000024B9847C046BD4602B080BD9B37000078
:1042500080B582B000AF7860C046BD4602B080BD78
:10426000B0B58EB004AF78607B6818004C4B9847AF
:104270007B684A229B5C3F221340DAB22123FB1861
:104280001A707B684B229A5C2223FB181A80222327
:10429000FB182222BA18128812021A807B684C225C
:1042A0009B5C99B22223FB182222BA1812888A1822
:1042B0001A8000237B622123FB181B781A007B6A7B
:1042C0009A4210DD7B6A0A337A684321D3185B185F
:1042D00019780C23FA187B6AD3180A1C1A707B6AA7
:1042E00001337B62E7E77B681B682C331C68212362
:1042F000FB181B789DB20C23FA182223FB1819888F
:1043000078682B00A0477B686E22995A2123FB18FE
:104310001B780333DBB2786800220292902292006D
:104320000192009300230A00BC211E4CA0477B6829
:10433000BD229A5C2123FB181B78D318D9B27B6865
:10434000BD2299547B684B22995C7B68BE229954AC
:104350007B684C22995C7B68BF2299547B681B6800
:1043600030331C687B68C0331A002123FB181B788C
:104370009DB22223FB18198878682B00A0477B6820
:10438000B622B02199547B68B322995C78680723E0
:104390000422054CA047C046BD460AB0B0BDC04689
:1043A00013470000A13E00005D3D000090B587B0BE
:1043B00004AF78607B6840229B5C002B1BD07B683D
:1043C0006E229A5A7B68183378680293D0239B0038
:1043D0000193022300930023BC21094CA0477B6872
:1043E0001800084B98477B68B322995C78680723CC
:1043F0000422054CA047C046BD4603B090BDC04650
:10440000A13E0000134700005D3D000080B582B072
:1044100000AF78607B68412200219954C046BD46B8
:1044200002B080BD90B587B004AF78607B68402251
:104430009B5C002B00D1A4E07B684C229B5C0C2B86
:1044400047D004DC052B08D00B2B26D099E00E2B8F
:1044500000D176E04E2B58D093E07B6818004B4B90
:1044600098477B686E229A5A7B6804337868029377
:10447000474B0193052300930023BC21454CA047E3
:104480007B681800444B98477B68B322995C786836
:1044900007230422414CA04773E07B686E229A5A9E
:1044A0007B681B3378680293394B01930A2300938E
:1044B0000023BC21374CA0477B681800364B984737
:1044C0007B68B322995C786807230422334CA047A9
:1044D00057E07B686E229A5A7B682533786802938E
:1044E0002B4B0193062300930023BC21294CA047AA
:1044F0007B681800284B98477B68B322995C7868E2
:1045000007230422254CA0473BE07B686E229A5A81
:104510007B682B33786802931D4B01930A23009329
:104520000023BC211B4CA0477B6818001A4B9847FE
:104530007B68B322995C786807230422174CA04754
:104540001FE07B681800164B98477B686E229A5ACA
:104550007B680933786802930D4B01930523009320
:104560000023BC210B4CA0477B6818000A4B9847DE
:104570007B68B322995C786807230422074CA04724
:10458000C046C046BD4603B090BDC046BF47000010
:10459000D6030000A13E0000134700005D3D00006F
:1045A0002748000090B587B004AF78607B68402250
:1045B0009B5C002B4CD07B684C229B5C052B02D073
:1045C0000E2B20D044E07B681800234B98477B6873
:1045D0006E229A5A7B680433786802931F4B0193CA
:1045E000052300930023BC211D4CA0477B681800C5
:1045F0001C4B98477B68B322995C78680723042298
:10460000194CA04724E07B681800184B98477B683A
:104610004F229A5C7B685A737B686E229A5A7B6839
:104620000933786802930D4B01930523009300230F
:10463000BC210B4CA0477B6818000A4B98477B684D
:10464000B322995C786807230422074CA047C04630
:10465000C046BD4603B090BDBF470000D603000072
:10466000A13E0000134700005D3D00002748000008
:1046700090B589B004AF78607B6840229B5C002BCA
:104680001ED07B681800104B98470C23FB180022A3
:104690001A707B686E229A5A78680C23FB18029372
:1046A0000A4B0193012300930023BC21084CA0472F
:1046B0007B68B322995C786807230422054CA047E5
:1046C000C046BD4605B090BD13470000D2030000B0
:1046D000A13E00005D3D000090B583B000AF786062
:1046E0007B681B6808331C687B687022995A7B685A
:1046F00079331A0078680023A047C046BD4603B04E
:1047000090BD80B582B000AF7860C046BD4602B0B3
:1047100080BD80B582B000AF78607A6896235B0078
:10472000BC21D1547B684622995C7A682E23FF33E2
:10473000D1547B684722995C7A6897235B00D154F7
:104740007B684422995C7A683023FF33D1547B68BC
:104750004522995C7A6898235B00D1547A683223A9
:10476000FF336021D1547A6899235B008021D154B2
:104770007A6899235B00D35C4033D9B27A68992375
:104780005B00D1547A6899235B00D25C7B68782106
:104790005B5C9B00DBB2D318D9B27A6899235B00CB
:1047A000D1547A6899235B00D35C0233D9B27A681A
:1047B00099235B00D154C046BD4602B080BD80B590
:1047C00082B000AF78607B684B229A5C7B681A717C
:1047D0007B6805225A717B6810229A717B680122DE
:1047E000DA717B684F229B5C022B14D002DC012B18
:1047F00009D014E0032B0AD0042B00D00FE07B6813
:1048000000221A720BE07B6802221A7207E07B68B2
:1048100002221A7203E07B6801221A72C046C04667
:10482000BD4602B080BD80B582B000AF78607B68C5
:104830004B229A5C7B685A727B680E229A727B6864
:104840001022DA727B6801221A73C046BD4602B09C
:1048500080BD80B582B000AF78600A00FB1C1A7082
:104860007A68F91C2623FF330978D154C046BD4627
:1048700002B080BD80B582B000AF78607A68262330
:10488000FF33D35C1800BD4602B080BD80B582B056
:1048900000AF78600A00BB1C1A80C046BD4602B05B
:1048A00080BD80B582B000AF786000231800BD469F
:1048B00002B080BD80B582B000AF78607B68180020
:1048C000BD4602B080BD80B584B000AFF86008007E
:1048D0007A6019000A23FB18021C1A800823FB18AF
:1048E0000A1C1A80C046BD4604B080BD80B584B0A5
:1048F00000AFF86008007A6019000A23FB18021C58
:104900001A800823FB180A1C1A80C046BD4604B052
:1049100080BD80B582B000AF78600A00BB1C1A80F1
:1049200000231800BD4602B080BD80B584B000AF42
:10493000F8607A603B600A23FB180A1C1A80C046A4
:10494000BD4604B080BD80B582B000AF78603960EC
:1049500000231800BD4602B080BD80B582B000AF14
:1049600078600A00FB1C1A7000231800BD4602B0D4
:1049700080BD000070B50D4E0D4D0024AD1BAD1077
:1049800005D0A300F35801349847A542F9D100F0AF
:10499000B1F9084E084D0024AD1BAD1005D0A300A1
:1049A000F35801349847A542F9D170BD004D00007D
:1049B000004D0000004D00000C4D0000034B10B5F1
:1049C000002B02D0024800F005F810BD00000000E6
:1049D000E549000010B5010000230022002000F08E
:1049E0001FF810BD70B5094B094CE41AA41009D08A
:1049F000084AA518AD00ED182B68013C9847043D06
:104A0000002CF9D100F082F970BDC046184D0000AD
:104A10001C4D0000FFFFFF3F7047C0467047C04677
:104A2000F0B54E464546DE465746E0B5364D83B0B6
:104A30000600286898460F009146FFF7EDFF334BBC
:104A40001C68A4235B00E058002852D043681F2B49
:104A500013DC5A1C0192002E28D1019A02339B00CC
:104A600042601F502868FFF7D9FF002003B03CBC0C
:104A700090469946A246AB46F0BD254B002B3DD053
:104A8000C820400000E000BF002837D0A422002347
:104A90005200A15843600160A0504032835004325C
:104AA0008350013301930023002ED6D09A00924602
:104AB00082444A46882154466250C422520091469C
:104AC00081444A468739994012688B460A43944686
:104AD0004A4661461160842241465200A150022E8E
:104AE000BBD102005C468D32FF3211680C4314606A
:104AF000B3E720004D30FF30E050A7E72868FFF70C
:104B00008DFF01204042B1E750040020F04C00002E
:104B1000000000002E2E2F68706C2F706F72742FA3
:104B200068706C5F6770696F5F626173652E6800A3
:104B30002E2E2F68706C2F706D2F68706C5F706DEB
:104B40005F626173652E68002E2E2F68616C2F7373
:104B500072632F68616C5F666C6173682E6300001E
:104B60002E2E2F68616C2F7372632F68616C5F69E2
:104B70006F2E63002E2E2F68616C2F7372632F6867
:104B8000616C5F74696D65722E6300002E2E2F6854
:104B9000616C2F7372632F68616C5F7573617274DF
:104BA0005F6173796E632E63000000002E2E2F6804
:104BB000616C2F7574696C732F7372632F757469D0
:104BC0006C735F6C6973742E630000002E2E2F6867
:104BD000616C2F7574696C732F7372632F757469B0
:104BE0006C735F72696E676275666665722E6300CC
:104BF0002E2E2F68706C2F6E766D6374726C2F681A
:104C0000706C5F6E766D6374726C2E6300000000D2
:104C10002E2E2F68706C2F7274632F68706C5F7209
:104C200074632E63000000002E2E2F68706C2F73AB
:104C30006572636F6D2F68706C5F736572636F6D03
:104C40002E630000000000000000000000000000D3
:104C50000000000000000000000000000000000054
:104C6000134900005B4900002B4900004749000040
:104C70006B3700007B3700008B370000D13D000010
:104C80008D480000A348000055370000C7480000C9
:104C90009D33000022390000863A000042390000AE
:104CA000863A00006239000082390000C4390000F1
:104CB0002A3A000000000000000000001349000034
:104CC0005B4900002B490000474900006B3700009A
:104CD0007B3700008B370000D13D00008D4800007D
:104CE000A348000055370000C7480000ED48000009
:104CF00028000020F8B5C046F8BC08BC9E467047A6
:104D0000BD490000DD00000009370000F8B5C046CD
:0C4D1000F8BC08BC9E467047B5000000CF
:104D1C00000000000400104100000300ADD80000AA
:104D2C00000000000300000004001040000003001D
:104D3C00ADD80000000000000000000014030020AB
:104D4C007C030020E40300200000000000000000B1
:104D5C000000000000000000000000000000000047
:104D6C000000000000000000000000000000000037
:104D7C000000000000000000000000000000000027
:104D8C000000000000000000000000000000000017
:104D9C000000000000000000000000000000000007
:104DAC0000000000000000000000000000000000F7
:104DBC0000000000000000000000000000000000E7
:104DCC0000000000000000000000000000000000D7
:104DDC0000000000000000000000000000000000C7
:104DEC0001000000000000000E33CDAB34126DE664
:104DFC00ECDE05000B0000000000000000000000CD
:104E0C000000000000000000000000000000000096
:104E1C000000000000000000000000000000000086
:104E2C000000000000000000000000000000000076
:104E3C000000000000000000000000000000000066
:04516C00BC0700205C
:00000001FF
